{
  "contractName": "Student",
  "abi": [
    {
      "constant": false,
      "inputs": [
        {
          "internalType": "uint256",
          "name": "_studentId",
          "type": "uint256"
        },
        {
          "internalType": "string",
          "name": "name",
          "type": "string"
        },
        {
          "internalType": "uint256",
          "name": "age",
          "type": "uint256"
        }
      ],
      "name": "setStudentInfo",
      "outputs": [],
      "payable": false,
      "stateMutability": "nonpayable",
      "type": "function"
    },
    {
      "constant": true,
      "inputs": [
        {
          "internalType": "uint256",
          "name": "_studentId",
          "type": "uint256"
        }
      ],
      "name": "getStudentInfo",
      "outputs": [
        {
          "internalType": "string",
          "name": "",
          "type": "string"
        },
        {
          "internalType": "uint256",
          "name": "",
          "type": "uint256"
        }
      ],
      "payable": false,
      "stateMutability": "view",
      "type": "function"
    }
  ],
  "bytecode": "0x608060405234801561001057600080fd5b506103a4806100206000396000f3fe608060405234801561001057600080fd5b50600436106100365760003560e01c80633c3b00ff1461003b57806365a81d7d1461010a575b600080fd5b6101086004803603606081101561005157600080fd5b81019080803590602001909291908035906020019064010000000081111561007857600080fd5b82018360208201111561008a57600080fd5b803590602001918460018302840111640100000000831117156100ac57600080fd5b91908080601f016020809104026020016040519081016040528093929190818152602001838380828437600081840152601f19601f820116905080830192505050505050509192919290803590602001909291905050506101b8565b005b6101366004803603602081101561012057600080fd5b81019080803590602001909291905050506101f6565b6040518080602001838152602001828103825284818151815260200191508051906020019080838360005b8381101561017c578082015181840152602081019050610161565b50505050905090810190601f1680156101a95780820380516001836020036101000a031916815260200191505b50935050505060405180910390f35b60008060008581526020019081526020016000209050828160000190805190602001906101e69291906102ca565b5081816001018190555050505050565b6060600080600084815260200190815260200160002060000160008085815260200190815260200160002060010154818054600181600116156101000203166002900480601f0160208091040260200160405190810160405280929190818152602001828054600181600116156101000203166002900480156102ba5780601f1061028f576101008083540402835291602001916102ba565b820191906000526020600020905b81548152906001019060200180831161029d57829003601f168201915b5050505050915091509150915091565b828054600181600116156101000203166002900490600052602060002090601f016020900481019282601f1061030b57805160ff1916838001178555610339565b82800160010185558215610339579182015b8281111561033857825182559160200191906001019061031d565b5b509050610346919061034a565b5090565b61036c91905b80821115610368576000816000905550600101610350565b5090565b9056fea265627a7a72315820d426e0d929fb154c9b70b42f05ee8a2ee6c38bde90fef7a331a11bf759389f2564736f6c63430005100032",
  "source": "pragma solidity >=0.4.22 <0.9.0;\n\ncontract Student {\n    \n    struct Student {\n        string name;\n        uint age;\n    }\n\n    mapping(uint256 => Student) studentInfo;\n\n    function setStudentInfo(uint256 _studentId, string memory name, uint age) public {\n        Student storage student = studentInfo[_studentId];\n        student.name = name;\n        student.age = age;\n    }\n\n    function getStudentInfo(uint256 _studentId) public view returns (string memory, uint) {\n        return (studentInfo[_studentId].name, studentInfo[_studentId].age);\n    }\n\n}",
  "sourcePath": "/Users/handonglee/Desktop/mydapp/contracts/Student.sol",
  "compiler": {
    "name": "solc",
    "version": "0.5.16+commit.9c3226ce.Emscripten.clang"
  },
  "schemaVersion": "3.4.3",
  "updatedAt": "2021-09-28T08:33:00.828Z",
  "networkType": "ethereum",
  "devdoc": {
    "methods": {}
  },
  "userdoc": {
    "methods": {}
  }
}