{
  "contractName": "Testament",
  "abi": [
    {
      "constant": false,
      "inputs": [
        {
          "internalType": "uint256",
          "name": "_password",
          "type": "uint256"
        },
        {
          "internalType": "string",
          "name": "_writer",
          "type": "string"
        },
        {
          "internalType": "uint256",
          "name": "_timestamp",
          "type": "uint256"
        },
        {
          "internalType": "string",
          "name": "_fileSrc",
          "type": "string"
        }
      ],
      "name": "setTestament",
      "outputs": [],
      "payable": false,
      "stateMutability": "nonpayable",
      "type": "function"
    },
    {
      "constant": true,
      "inputs": [
        {
          "internalType": "uint256",
          "name": "_password",
          "type": "uint256"
        }
      ],
      "name": "getTestament",
      "outputs": [
        {
          "internalType": "string",
          "name": "",
          "type": "string"
        },
        {
          "internalType": "uint256",
          "name": "",
          "type": "uint256"
        },
        {
          "internalType": "string",
          "name": "",
          "type": "string"
        }
      ],
      "payable": false,
      "stateMutability": "view",
      "type": "function"
    }
  ],
  "bytecode": "0x608060405234801561001057600080fd5b50610578806100206000396000f3fe608060405234801561001057600080fd5b50600436106100365760003560e01c8063132bb5e11461003b578063f8f5828e14610155575b600080fd5b6100676004803603602081101561005157600080fd5b81019080803590602001909291905050506102bb565b604051808060200184815260200180602001838103835286818151815260200191508051906020019080838360005b838110156100b1578082015181840152602081019050610096565b50505050905090810190601f1680156100de5780820380516001836020036101000a031916815260200191505b50838103825284818151815260200191508051906020019080838360005b838110156101175780820151818401526020810190506100fc565b50505050905090810190601f1680156101445780820380516001836020036101000a031916815260200191505b509550505050505060405180910390f35b6102b96004803603608081101561016b57600080fd5b81019080803590602001909291908035906020019064010000000081111561019257600080fd5b8201836020820111156101a457600080fd5b803590602001918460018302840111640100000000831117156101c657600080fd5b91908080601f016020809104026020016040519081016040528093929190818152602001838380828437600081840152601f19601f820116905080830192505050505050509192919290803590602001909291908035906020019064010000000081111561023357600080fd5b82018360208201111561024557600080fd5b8035906020019184600183028401116401000000008311171561026757600080fd5b91908080601f016020809104026020016040519081016040528093929190818152602001838380828437600081840152601f19601f820116905080830192505050505050509192919290505050610446565b005b60606000606060008085815260200190815260200160002060000160008086815260200190815260200160002060010154600080878152602001908152602001600020600201828054600181600116156101000203166002900480601f0160208091040260200160405190810160405280929190818152602001828054600181600116156101000203166002900480156103965780601f1061036b57610100808354040283529160200191610396565b820191906000526020600020905b81548152906001019060200180831161037957829003601f168201915b50505050509250808054600181600116156101000203166002900480601f0160208091040260200160405190810160405280929190818152602001828054600181600116156101000203166002900480156104325780601f1061040757610100808354040283529160200191610432565b820191906000526020600020905b81548152906001019060200180831161041557829003601f168201915b505050505090509250925092509193909250565b600080600086815260200190815260200160002090508381600001908051906020019061047492919061049e565b508281600101819055508181600201908051906020019061049692919061049e565b505050505050565b828054600181600116156101000203166002900490600052602060002090601f016020900481019282601f106104df57805160ff191683800117855561050d565b8280016001018555821561050d579182015b8281111561050c5782518255916020019190600101906104f1565b5b50905061051a919061051e565b5090565b61054091905b8082111561053c576000816000905550600101610524565b5090565b9056fea265627a7a72315820b9684ac0adb1c4ec482e08b9eeeae6a6e8ac9337f52bf1df25aed297398197af64736f6c63430005100032",
  "source": "pragma solidity >=0.4.22 <0.9.0;\n\ncontract Testament {\n    \n    struct Testament {\n        string writer;        \n        uint256 timestamp;\n        string fileSrc;\n    }\n\n    mapping(uint256 => Testament) TestamentInfo;\n\n    function setTestament(uint256 _password, string memory _writer, uint256 _timestamp, string memory _fileSrc) public {\n        Testament storage testament = TestamentInfo[_password];\n        testament.writer = _writer;\n        testament.timestamp = _timestamp;\n        testament.fileSrc = _fileSrc;\n    }\n\n    function getTestament(uint256 _password) public view returns (string memory, uint256, string memory) {\n        return (TestamentInfo[_password].writer, TestamentInfo[_password].timestamp, TestamentInfo[_password].fileSrc);\n    }\n}",
  "sourcePath": "/Users/handonglee/Desktop/mydapp/contracts/Testament.sol",
  "compiler": {
    "name": "solc",
    "version": "0.5.16+commit.9c3226ce.Emscripten.clang"
  },
  "schemaVersion": "3.4.3",
  "updatedAt": "2021-10-07T17:07:31.415Z",
  "networkType": "ethereum",
  "devdoc": {
    "methods": {}
  },
  "userdoc": {
    "methods": {}
  }
}